:020000040800F2
:10000000F80400200101000877110008710F0008B2
:10001000751100086D010008E515000800000000DA
:100020000000000000000000000000009B1100081C
:100030006F01000800000000991100089D110008E0
:100040001B0100081B0100081B0100081B01000820
:100050001B0100081B0100081B0100081B01000810
:100060001B0100081B0100081B0100081B01000800
:100070001B0100081B0100081B0100081B010008F0
:100080001B0100081B0100081B0100081B010008E0
:100090001B0100081B0100081B010008710100087A
:1000A0001B0100081B0100081B0100081B010008C0
:1000B0001B0100081B0100081B0100081B010008B0
:1000C0001B0100081B0100081B0100081B010008A0
:1000D0001B0100081B0100081B0100081B01000890
:1000E0001B0100081B0100081B010008DFF80CD0F1
:1000F00000F02AF80048004711160008F804002014
:100100000648804706480047FEE7FEE7FEE7FEE7B1
:10011000FEE7FEE7FEE7FEE7FEE7FEE7F111000877
:10012000ED000008D2B201E000F8012B491EFBD21D
:1001300070470022F6E710B513460A4604461946F2
:10014000FFF7F0FF204610BD064C074D06E0E068C3
:1001500040F0010394E8070098471034AC42F6D30E
:10016000FFF7C8FF80160008A0160008FEE77047DA
:10017000202000F007B87047202801D101F042BAD2
:1001800070470000044910B50A68024202D00860B6
:10019000FFF7F2FF10BD0000140401402DE9F84FF5
:1001A000DFF890A100220AF1040B144601274FF05A
:1001B0000F090BF1040E00BF0B6807FA04F52B4082
:1001C000AB4274D1DFF870C14E68A6EB0C086645EF
:1001D0002BD00DDC032E34D005DC36B3012E19D024
:1001E000022E2FD11BE0112E16D0122E2AD119E08B
:1001F000B8F5881F19D006DCB8F5803F15D0B8F5E2
:10020000801F1FD111E0B8F5001F0ED0B8F5041FF4
:1002100018D10AE0CA6815E0CA68121D12E0CA685F
:1002200008320FE0CA680C320CE08A682AB1012A51
:100230004FF0080203D0456104E0042202E00561AA
:1002400000E00022FF2B01D8064601E000F1040681
:100250004FEA840501D9A5F12005D6F800C009FAB6
:1002600005F82CEA080C02FA05F54CEA050CC6F86C
:1002700000C04D68ED0057D5304DAE6946F001061F
:10028000AE61AD6924F0030605F0010500952C4D23
:1002900006EB050CDCF80850A6074FEA167809FAB9
:1002A00008F6B543274EB04202D1002610E03BE0ED
:1002B000254EB04201D101260AE0244EB04201D1C0
:1002C000022605E0224EB04201D1032600E00426BA
:1002D00006FA08F62E43CCF808604D68DAF800609C
:1002E000ED03554601D51E4300E09E432E604D6848
:1002F000DBF80060AD035D4601D51E4300E09E4380
:100300002E604D68DEF80060ED02754601D51E4393
:1003100000E09E432E604D68AD020E4D2E6801D563
:100320001E4300E09E432E60641C102CFFF444AF7B
:10033000BDE8F88F000401400000111000100240D9
:100340000000014000080140000C01400010014085
:10035000001401400C0401400AB101617047090416
:10036000FBE70000014880687047000000000020A3
:1003700070B504001BD094F83D00002520B984F826
:100380003C50204600F094F8242084F83D0020687A
:10039000016821F00101016000F004FA404A61683F
:1003A000914201D83F4900E03F49884201D20120F3
:1003B00070BD3E492368B0FBF1F159606368934218
:1003C00006D94FF4967359434FF47A73B1FBF3F1A6
:1003D0002368491C19626168914210D84900401E87
:1003E000B0FBF1F2521CC2F30B02042A01D204202A
:1003F00022E0B0FBF1F0401CC0F30B001CE0A3684E
:10040000CBB301EBC10202EB0116421EB2FBF6F2C6
:10041000521C42F48042120536D06BB301EBC1028C
:1004200002EB0111401EB0FBF1F0401CC0F30B00C9
:1004300040F4804040F400402168C861D4E90701DD
:10044000084321680860D4E90310084321688860E4
:10045000D4E9050108432168C8602068016841F0BB
:10046000010101602564202084F83D00256384F8A3
:100470003E50002070BD00E008E001EB4106421E46
:10048000B2FBF6F2521CC6E70120D5E701EB4101B1
:10049000401EB0FBF1F0401CC0F30B00CAE70000A7
:1004A000A086010080841E0000093D0040420F002C
:1004B00010B586B00021009101910291039100686E
:1004C0000F4988421AD10F4CA06940F00800A06182
:1004D000A069694600F008000490C0200090122036
:1004E0000190032003900848FFF758FEE06940F4AC
:1004F0000010E061E06900F40010049006B010BD47
:100500000054004000100240000C01400248816885
:10051000027811448160704700000020074810B540
:10052000016841F010010160032000F073F8002021
:1005300000F006F800F024F8002010BD0020024072
:1005400070B50D4D04464FF47A712878B1FBF0F088
:100550000A490968B1FBF0F000F0FCFA48B9102C28
:1005600007D200222146501E00F034F800206C60B3
:1005700070BD012070BD0000000000200C000020B4
:100580000C4808B5816941F001018161816901F080
:1005900001010091C16941F08051C161C06900F061
:1005A000805000900448416821F0E06141F0007102
:1005B000416008BD001002400000014000F01F0231
:1005C000012191404009800000F1E020C0F80011B5
:1005D00070470000F0B40E4B1B680C46C3F30223B7
:1005E000C3F10705042D00D90425191D072901D2DF
:1005F000002300E0DB1E012606FA05F1491E21401A
:1006000099409E40761E16403143F0BC00F0B4BDC8
:100610000CED00E0064900F0070208684FF6FF0302
:10062000184040EA0220034A104308607047000067
:100630000CED00E00000FA052DE9F047DFF85481E9
:1006400005460E46D8F8000000F00700B0420CD274
:10065000D8F8001021F007013143C8F80010D8F88D
:10066000000000F00700B0426FD128684A4C8107B3
:1006700012D5400703D5606840F4E06060602878D8
:10068000000703D5606840F4605060606068A96846
:1006900020F0F000084360602878C00744D0686804
:1006A000012816D02168022816D0890700294CDAC3
:1006B000616821F0030101436160FFF753FE69683F
:1006C000074641F2883001290ED00229814618D010
:1006D00026E021688903E9E78901E7E7FFF742FEA1
:1006E000C11B494501D918E081466068C0F381000B
:1006F0000128F3D118E000BFFFF734FEC11B4945C4
:100700000BD86068C0F381000228F5D10CE000BF6F
:10071000FFF728FEC11B494502D90320BDE8F08739
:10072000606810F00C0FF3D1D8F80010404601F0CB
:100730000701B1420BD9016821F007013143016083
:10074000006800F00700B04201D00120E6E72878F9
:10075000400705D56068E96820F4E0600843606000
:100760002878000706D56068296920F4605040EABF
:10077000C100606000F036F86168084AC1F30311F7
:10078000515CC840064908600020FFF7D9FE0020F0
:10079000C4E7000000200240001002406816000874
:1007A0000C0000200448054900684968044AC1F368
:1007B0000221515CC84070470C000020001002402C
:1007C000781600080448054900684968044AC1F3DE
:1007D000C221515CC84070470C000020001002404C
:1007E0007816000812A185B00FC98DE80F0014A07B
:1007F000144A006804905168134801F00C03042B5C
:1008000010D0082B0ED1C1F38343C9031DF8030098
:100810000AD5516804AAC1F34041515C0A4A5043C9
:10082000B0FBF1F005B0704708494843FAE7000013
:1008300002030405060708090A0B0C0D0E0F101021
:10084000010200000010024000127A0000093D0081
:100850002DE9F84F04460078B94DC00748D06868C4
:10086000C0F38100012807D06868C0F38100022826
:1008700009D16868C00306D52868800338D5606848
:1008800000286FD034E06068B0F5803F0BD010B125
:10089000B0F5A02F11D0286820F480302860286897
:1008A00020F4802002E0286840F4803028606068EE
:1008B00088B1FFF757FD064609E0286840F480201C
:1008C0002860F0E7FFF74EFD801B642875D8286884
:1008D0008003F7D50CE0FFF745FD064605E000BFB5
:1008E000FFF740FD801B6428F0D828688003F7D408
:1008F0002078944E80074FF001094FF000083BD557
:10090000686810F00C0F07D06868C0F381000228F7
:1009100009D16868C00306D42868800714D5206907
:1009200001281FD110E02069B0B1C6F80090FFF790
:1009300019FD074605E000BFFFF714FDC01B0228A4
:10094000C4D828688007F7D52868616920F0F800C6
:1009500040EAC10028600FE0C6F80080FFF702FD02
:10096000074606E0E9E000BFFFF7FCFCC01B0228D9
:1009700023D828688007F7D4207800072CD5724840
:10098000A169D9B1C0F80090FFF7ECFC074604E07C
:10099000FFF7E8FCC01B02280FD8686A8007F7D56C
:1009A0006A484FF4FA510068B0FBF1F0009000BFC4
:1009B0000098411E0091FAD20EE080E0C0F800805D
:1009C000FFF7D0FC074604E0FFF7CCFCC01B022871
:1009D00075D8686A8007F7D42078400760D5E86941
:1009E0000027C00008D4E86940F08050E861E86959
:1009F000012700F08050009055480168C90513D4C4
:100A00000168834641F480710160FFF7ABFC8246C8
:100A100006E000BFFFF7A6FCA0EB0A0064284ED852
:100A2000DBF80000C005F5D5E06801280AD008B160
:100A3000052813D0286A20F001002862286A20F0D7
:100A4000040002E0286A40F001002862E06841F2F8
:100A5000883B98B1FFF786FC82460BE0286A40F09D
:100A600004002862EEE700BFFFF77CFCA0EB0A0160
:100A700059455AD8286A8007F6D50CE0FFF772FC72
:100A8000824605E0FFF76EFCA0EB0A0159454CD801
:100A9000286A8007F6D41FB1E86920F08050E86129
:100AA000E06988B36968C1F38101022945D0022851
:100AB000C6F8608004D0FFF755FC044638E034E007
:100AC000FFF750FC074604E0FFF74CFCC01B022870
:100AD0002BD828688001F7D4206AB0F5803F05D173
:100AE0006868A16820F4003008436860D4E9080110
:100AF0000843696821F4741108436860C6F860907F
:100B0000FFF730FC044606E015E000BFFFF72AFCC3
:100B1000001B022809D828688001F7D50BE000BF28
:100B2000FFF720FC001B022802D90320BDE8F88F44
:100B300028688001F4D40020F8E70120F6E70000DF
:100B40000010024000004242800442420C0000209B
:100B50000070004010B5401EB0F1807F01D301202D
:100B600010BD4FF0E02460610F21601700F004FB1E
:100B70000020A06107202061002010BD30B590F852
:100B80003C20012A20D0012280F83C20022380F85A
:100B90003D3003685C6824F070045C6003685C6846
:100BA0000D682C435C6003689C6824F080049C60A2
:100BB00003689C6849680C439C6080F83D200021D4
:100BC00080F83C10084630BD022030BD10B504004E
:100BD00003D094F83D0010B107E0012010BD0020C3
:100BE00084F83C00204600F00DF8022084F83D0017
:100BF000211D206800F020FB012084F83D0000202A
:100C000010BD000008B50068B0F1804F08D105485C
:100C1000C16941F00101C161C06900F001000090AB
:100C200008BD00000010024070B5044690F83C007A
:100C3000012817D0012584F83C50022084F83D009B
:100C40002068826822F0770222F47F42826008687E
:100C5000502837D00DDC202859D005DC88B3102867
:100C600041D151E0022070BD302853D040283AD104
:100C70003FE060282ED070280BD0B0F5805F03D005
:100C8000B0F5005F2FD110E02068816821F00701E6
:100C900015E0CB68D1E90121206800F00EFB216846
:100CA000886840F0770088601DE0CB68D1E90121B9
:100CB000206800F002FB2068816841F48041816077
:100CC00011E01EE0CA684968206800F0AFFB5021BF
:100CD000206806E0CA684968206800F0B8FB602117
:100CE000206800F0F4FA84F83D50002084F83C00BD
:100CF00070BDCA684968206800F098FB40212068F0
:100D0000EFE700212068ECE710212068E9E72021C7
:100D10002068E6E730212068E3E7000000B585B0F1
:100D2000002100910191029103910068B0F1804F80
:100D300011D10A48816941F00401816180696946E5
:100D400000F0040004900F20009002200190039016
:100D50000348FFF723FA05B000BD00000010024071
:100D60000008014070B5044690F83C000D4601288B
:100D70000DD0012684F83C60022084F83D0042B189
:100D8000042A18D0082A2AD00C2A4DD139E0022092
:100D900070BD206800F0A4FA2068816941F0080164
:100DA00081612068816921F0040181612068816985
:100DB0002A69114311E0206800F0BAFA20688169BD
:100DC00041F4006181612068816921F48061816161
:100DD000206881692A6941EA0221816124E0206852
:100DE00000F0D2FA2068C16941F00801C1612068B1
:100DF000C16921F00401C1612068C1692A691143F8
:100E000011E0206800F0ECFA2068C16941F400614B
:100E1000C1612068C16921F48061C1612068C16934
:100E20002A6941EA0221C16184F83D60002084F80A
:100E30003C0070BD10B5040003D094F83D0010B123
:100E400007E0012010BD002084F83C00204600F09F
:100E50000CF8022084F83D00211D206800F0ECF918
:100E6000012084F83D00002010BD704710B50446F5
:100E70000068012200F016FA07492068884203D171
:100E8000416C41F4004141642068016841F0010176
:100E90000160002010BD0000002C014070B504006E
:100EA00004D094F83900002510B106E0012070BD8F
:100EB00084F83850204600F023F8242084F83900C4
:100EC0002068C16821F40051C160204600F0D2FAC8
:100ED0002068016921F4904101612068416921F095
:100EE0002A0141612068C16841F40051C160E56395
:100EF000202084F8390084F83A00002070BD0000FA
:100F000030B585B0002400940194029403940068E5
:100F10001449884224D11448816941F48041816197
:100F2000816901F480410491816941F0040181618A
:100F300080690E4D00F0040004904FF400700090A2
:100F4000022001900320039069462846FFF726F906
:100F50002815CDE90004694628460294FFF71EF9DA
:100F600005B030BD003801400010024000080140CB
:100F7000FEE700002DE9F04385B0002429480094E5
:100F8000019402940394816941F020018161816997
:100F900001F020010491816941F0040181618169BE
:100FA00001F004010491816941F0080181618069C7
:100FB000DFF8749000F00800049000220A214846EF
:100FC000FFF7CAF9DFF864804FF410670022394652
:100FD0004046FFF7C1F90A2001250226CDE90005A8
:100FE000CDE9024669464846FFF7D8F800970396D0
:100FF000CDE9015469464046FFF7D0F82020009023
:101000000B48CDE9010469464846FFF7C7F80022BE
:1010100001211720FFF7DEFA1720FFF7CFFA05B0FE
:10102000BDE8F08300100240000C014000080140C0
:10103000000021100D4810B50B4901600C494160BA
:1010400000214FF480428160C0E903124161816157
:10105000C1610162FFF78CF9002803D0BDE81040A0
:10106000FFF789B810BD00000054004024000020A4
:10107000A086010010B58EB000240794089409944E
:101080000A940B941C2168460C94FFF752F82A48E6
:101090004FF0804101600221C0E9011440F2E731C4
:1010A000C0E903148461FFF791FD08B1FFF763F80D
:1010B0004FF48050079007A91F48FFF7B5FD08B10E
:1010C000FFF759F81C48FFF7B5FE08B1FFF753F8D2
:1010D0000B940BA918480C94FFF750FD08B1FFF7CB
:1010E0004AF86020CDE900040294002269461248C3
:1010F0000494FFF737FE08B1FFF73DF80422694674
:101100000D48FFF72FFE08B1FFF735F808226946B2
:101110000948FFF727FE08B1FFF72DF80C226946B2
:101120000548FFF71FFE08B1FFF725F80248FFF753
:10113000F5FD0EB010BD0000780000200C4810B581
:101140000A4901604FF4E1314160002181600C22C5
:10115000C160C0E904128161C161FFF79FFE0028F0
:1011600003D0BDE81040FFF706B810BD00380140BD
:10117000B8000020FEE770470907090E002806DACC
:1011800000F00F0000F1E02080F8141D704700F11E
:10119000E02080F80014704770477047FFF7B6B939
:1011A00030B58FB028216846FEF7C3FF14210AA886
:1011B000FEF7BFFF01210804CDE9001000240294CE
:1011C00002250491CDE907504FF4E01009906846DC
:1011D000FFF73EFB0F20CDE90A056802CDE90C4080
:1011E00002210AA80E94FFF727FA0FB030BD0000C5
:1011F0000D48016841F00101016041680B4A11404E
:10120000416001680A4A11400160016821F48021AF
:101210000160416821F4FE0141604FF41F018160CB
:101220000449C00308607047001002400000FFF846
:10123000FFFFF6FE08ED00E0F0B50268164B174C14
:10124000174D4FF08047984205D0B84203D0A042D6
:1012500001D0A84203D122F070064A683243984276
:1012600005D0B84203D0A04201D0A84203D122F455
:101270004074CA68224322F080044A692243026013
:101280008A68C2620A688262984201D10969016370
:1012900001214161F0BD0000002C0140000400402C
:1012A0000008004010B50123046A8B409C4304628F
:1012B000036A8A401343036210BD10B5846842EA92
:1012C000032224F47F440A432243826010BD8268D3
:1012D00022F070020A4342F007018160704700006B
:1012E00030B5026A22F001020262026A4368846930
:1012F00024F073050C682C4322F002058A682A4307
:101300000A4DA8420BD122F00805CA6823F44073A5
:101310002A434D6922F004021D438B692B4343602D
:10132000846149684163026230BD0000002C0140C5
:1013300030B5026A22F010020262026A43688469D0
:101340000D6824F4E64444EA05248D6822F0200266
:1013500042EA05120B4DA8420ED1CD6822F0800260
:1013600042EA05124D6923F4406343EA85038D691F
:1013700022F0400243EA8503436084614968816347
:10138000026230BD002C014030B5026A22F4807246
:101390000262036A4268C46923F4007324F073058F
:1013A0000C682C438D6843EA05230C4DA8420ED1EE
:1013B000CD6823F4006343EA05234D6922F44052CB
:1013C00042EA05128D6923F4806342EA0512426005
:1013D000C4614968C163036230BD0000002C014054
:1013E00030B5026A22F480520262046A4268C3691C
:1013F0000D6823F4E64343EA05238D6824F4005482
:1014000044EA0534064DA84204D14D6922F48042D5
:1014100042EA85124260C36149680164046230BDDA
:10142000002C01404FF080418863704710B5036A7B
:10143000046A24F001040462846924F0F00444EA9C
:10144000021423F00A020A438461026210BD10B53F
:10145000036A23F0100303628369046A23F4704370
:1014600043EA023224F0A00343EA011182610162DF
:1014700010BD00002DE9F041044600680169E268F2
:1014800021F44051114301612169A0680843616959
:1014900008432168CA6841F20C639A430243CA6058
:1014A00020684169A26921F44071114341614C49AE
:1014B00020686425322688423CD1FFF783F900EB8F
:1014C000C00101EB001061688900B0FBF1F7FFF784
:1014D00079F900EBC00101EB00106168B0468900AA
:1014E000B0FBF1F0B0FBF5F06FF01801484307EBEB
:1014F000800106EB0110B0FBF5F000F0F006FFF7FD
:1015000061F900EBC00101EB001061688900B0FBDC
:10151000F1F0B0FBF5F006EB0016FFF753F900EB26
:10152000C00101EB001061688900B0FBF1F7FFF723
:1015300049F93BE0FFF736F900EBC00101EB001081
:1015400061688900B0FBF1F7FFF72CF900EBC001EF
:1015500001EB00106168B0468900B0FBF1F0B0FB10
:10156000F5F06FF01801484307EB800106EB01101E
:10157000B0FBF5F000F0F006FFF714F900EBC00146
:1015800001EB001061688900B0FBF1F0B0FBF5F0F1
:1015900006EB0016FFF706F900EBC00101EB0010A7
:1015A00061688900B0FBF1F7FFF7FCF800EBC001C0
:1015B00001EB001061688900B0FBF1F0B0FBF5F0C1
:1015C0006FF01801484307EB800108EB0110B0FBF6
:1015D000F5F0216800F00F0030448860BDE8F0812C
:1015E00000380140FEE702E008C8121F08C1002AC7
:1015F000FAD170477047002001E001C1121F002A94
:10160000FBD1704701490120487470471000002049
:10161000FEF784FFFFF7C4FDFFF7ACFCFFF70AFD00
:10162000FFF78CFDFFF726FD00210E48FFF71EFC9B
:1016300004210C48FFF71AFC08210A48FFF716FCA2
:101640000C210848FFF712FC0A242046FFF7EAFEA7
:101650004FF4FA75641C2046FFF7E4FEAC42FAD85A
:10166000F8E7000078000020000000000000000003
:101670000102030406070809000000000102030438
:10168000A01600080000002010000000E615000869
:10169000B016000810000020E8040000F61500084D
:1016A00001000000100000000000000000A24A0439
:04000005080000ED02
:00000001FF
